:020000040800F2
:1000000000000320FD020008B1020008B30200084E
:10001000B5020008B7020008B9020008000000009D
:10002000000000000000000000000000BB0200080B
:10003000BD02000800000000BF020008C102000865
:100040004D0300084D0300084D0300084D03000850
:100050004D0300084D0300084D0300084D03000840
:100060004D0300084D0300084D0300084D03000830
:100070004D0300084D0300084D0300084D03000820
:100080004D0300084D0300084D0300084D03000810
:100090004D0300084D0300084D0300084D03000800
:1000A0004D0300084D0300084D0300084D030008F0
:1000B0004D0300084D0300084D0300084D030008E0
:1000C0004D0300084D0300084D0300084D030008D0
:1000D0004D0300084D0300084D0300084D030008C0
:1000E0004D0300084D0300084D0300084D030008B0
:1000F0004D0300084D0300084D0300084D030008A0
:100100004D0300084D0300084D0300084D0300088F
:100110004D0300084D0300084D0300084D0300087F
:100120004D0300084D0300084D0300084D0300086F
:100130004D0300084D0300084D0300084D0300085F
:100140004D0300084D0300084D0300084D0300084F
:100150004D0300084D0300084D0300084D0300083F
:100160004D0300084D0300084D0300084D0300082F
:100170004D0300084D0300084D0300080000000077
:100180004D0300084D0300084D0300084D0300080F
:100190004D0300084D0300084D0300084D030008FF
:0C01A0004D0300084D0300084D0300084B
:1001AC000348044B834202D0034B03B118477047FA
:1001BC00040000200400002000000000054806494F
:1001CC000B1AD90F01EBA301491002D0034B03B159
:1001DC0018477047040000200400002000000000B5
:1001EC0010B5064C237843B9FFF7DAFF044B13B173
:1001FC000448AFF300800123237010BD04000020DD
:10020C00000000005003000808B5044B1BB1044962
:10021C000448AFF30080BDE80840CFE700000000C1
:10022C00080000205003000870B50D4E0D4D761BD4
:10023C00B61006D00024013455F8043B9847A6426A
:10024C00F9D1094E094D761B00F07CF8B61006D09A
:10025C000024013455F8043B9847A642F9D170BDEF
:10026C0068030008680300086C03000868030008B2
:10027C00094A136B43F002031363A2F55052116841
:10028C00064B0B431360064A536943F4814343F016
:10029C0001035361F7E700BF003802400140001032
:1002AC0000040240FEE7FEE7FEE7FEE7FEE77047CC
:1002BC007047704708B500F001F808BD034A116893
:1002CC00034B1B780B441360704700BF20000020C9
:1002DC0000000020054BD3F8882042F47002C3F8CC
:1002EC0088204FF000629A60704700BF00ED00E07C
:1002FC00DFF834D0002103E00C4B5B584350043141
:10030C000B480C4B42189A42F6D30B4A02E00023DE
:10031C0042F8043B094B9A42F9D3FFF7DBFFFFF796
:10032C0083FFFFF7A5FF7047000003207003000850
:10033C000000002004000020040000202400002005
:10034C00FEE70000F8B500BFF8BC08BC9E4670473D
:0C035C00F8B500BFF8BC08BC9E46704716
:040368001502000872
:04036C00ED01000897
:040370000100000088
:04000005080002FDF0
:00000001FF
