:020000040800F2
:1000000000000320150500086505000865050008C7
:10001000650500086505000865050008000000008A
:10002000000000000000000000000000650500085E
:10003000650500080000000065050008A50300082C
:1000400065050008650500086505000865050008E8
:1000500065050008650500086505000865050008D8
:1000600065050008650500086505000865050008C8
:1000700065050008650500086505000865050008B8
:1000800065050008650500086505000865050008A8
:100090006505000865050008650500086505000898
:1000A0006505000865050008650500086505000888
:1000B0006505000865050008650500086505000878
:1000C0006505000865050008650500086505000868
:1000D0006505000865050008650500086505000858
:1000E0006505000865050008650500086505000848
:1000F0006505000865050008650500086505000838
:100100006505000865050008650500086505000827
:100110006505000865050008650500086505000817
:100120006505000865050008650500086505000807
:1001300065050008650500086505000865050008F7
:1001400065050008650500086505000865050008E7
:1001500065050008650500086505000865050008D7
:1001600065050008650500086505000865050008C7
:100170006505000865050008650500080000000029
:1001800065050008650500086505000865050008A7
:100190006505000865050008650500086505000897
:0C01A000650500086505000865050008FD
:1001AC000348044B834202D0034B03B118477047FA
:1001BC000C0000200C00002000000000054806493F
:1001CC000B1AD90F01EBA301491002D0034B03B159
:1001DC00184770470C0000200C00002000000000A5
:1001EC0010B5064C237843B9FFF7DAFF044B13B173
:1001FC000448AFF300800123237010BD0C000020D5
:10020C00000000006805000808B5044B1BB1044948
:10021C000448AFF30080BDE80840CFE700000000C1
:10022C00100000206805000870B50D4E0D4D761BB2
:10023C00B61006D00024013455F8043B9847A6426A
:10024C00F9D1094E094D761B00F088F9B61006D08D
:10025C000024013455F8043B9847A642F9D170BDEF
:10026C00900500089005000894050008900500080A
:10027C0008B5114A136B43F002031363A2F55052F5
:10028C0011680E4B0B43136000F0EEF80C4B1B681F
:10029C000C4AA2FB03235B09013BB3F1807F09D21B
:1002AC00094A5360094BF02183F823100023936013
:1002BC000723136062B608BD0038024001400010ED
:1002CC00080000201F85EB5110E000E000ED00E07D
:1002DC0008B5FFF7CDFF2C4B1A68111F19604FF0B2
:1002EC00807042F8040C1A68111F1960274942F8F3
:1002FC00041C1A68111F19600D2142F8041C1C689B
:10030C00221F1A600E2244F8042C1C68251F1D6045
:10031C000A2544F8045C1C68261F1E6044F8042C53
:10032C001C68261F1E6044F8045C1B6843F8041C00
:10033C00174B19680C1F1C6041F8040C1968081F36
:10034C001860144841F8040C1968081F18600B2039
:10035C0041F8040C1968081F186041F8042C19683E
:10036C00081F186041F8042C1968081F186041F820
:10037C00042C1968081F186041F8042C1B680F2204
:10038C0043F8042CFEE700BF0400002041040008E1
:10039C000000002009040008024A136801331360AE
:1003AC00704700BF6801002072B6034B1A68034BFC
:1003BC001A6062B618687047680100206C01002052
:1003CC0038B5642505FB00F5FFF7EEFF0446FFF793
:1003DC00EBFF001BA842FAD338BD0000024A536958
:1003EC0043F080035361704700040240024A536992
:1003FC0023F08003536170470004024008B5FFF7F7
:10040C00EDFF0120FFF7DCFFFFF7F0FF0120FFF706
:10041C00D7FFF4E7024A536943F001035361704775
:10042C0000040240024A536923F0010353617047F0
:10043C000004024008B5FFF7EDFF0120FFF7C0FFF5
:10044C00FFF7F0FF0120FFF7BBFFF4E7054BD3F8F4
:10045C00882042F47002C3F888204FF000629A6042
:10046C00704700BF00ED00E0224B9B6803F00C03CB
:10047C00042B14D0082B16D01BB11F4B1F4A1A602B
:10048C0002E01D4B1D4A1A601A4B9B68C3F3031301
:10049C001B4AD15C184A1368CB4013607047164B4B
:1004AC00184A1A60F0E7134B5A685B6803F03F0375
:1004BC0012F4800F13D0134AB2FBF3F20D4B5B68AE
:1004CC00C3F3881303FB02F30A4A5268C2F30142D6
:1004DC0001325200B3FBF2F3074A1360D4E7074A28
:1004EC00B2FBF3F2034B5B68C3F3881303FB02F319
:1004FC00EAE700BF00380240080000200024F400A6
:10050C008005000840787D01DFF834D0002103E03D
:10051C000C4B5B58435004310B480C4B42189A421D
:10052C00F6D30B4A02E0002342F8043B094B9A42F3
:10053C00F9D3FFF78BFFFFF777FEFFF7C9FE704784
:10054C000000032098050008000000200C0000208B
:10055C000C00002070010020FEE70000F8B500BF81
:10056C00F8BC08BC9E467047F8B500BFF8BC08BC88
:04057C009E467047E0
:100580000000000000000000010203040607080943
:040590001502000848
:04059400ED0100086D
:0C05980068010020C80000200024F400CE
:0400000508000515D5
:00000001FF
