:020000040800F2
:1000000000000320FD0300084D0400084D04000813
:100010004D0400084D0400084D04000800000000D5
:100020000000000000000000000000004D04000877
:100030004D040008000000004D040008DD02000827
:100040004D0400084D0400084D0400084D0400084C
:100050004D0400084D0400084D0400084D0400083C
:100060004D0400084D0400084D0400084D0400082C
:100070004D0400084D0400084D0400084D0400081C
:100080004D0400084D0400084D0400084D0400080C
:100090004D0400084D0400084D0400084D040008FC
:1000A0004D0400084D0400084D0400084D040008EC
:1000B0004D0400084D0400084D0400084D040008DC
:1000C0004D0400084D0400084D0400084D040008CC
:1000D0004D0400084D0400084D0400084D040008BC
:1000E0004D0400084D0400084D0400084D040008AC
:1000F0004D0400084D0400084D0400084D0400089C
:100100004D0400084D0400084D0400084D0400088B
:100110004D0400084D0400084D0400084D0400087B
:100120004D0400084D0400084D0400084D0400086B
:100130004D0400084D0400084D0400084D0400085B
:100140004D0400084D0400084D0400084D0400084B
:100150004D0400084D0400084D0400084D0400083B
:100160004D0400084D0400084D0400084D0400082B
:100170004D0400084D0400084D0400080000000074
:100180004D0400084D0400084D0400084D0400080B
:100190004D0400084D0400084D0400084D040008FB
:0C01A0004D0400084D0400084D04000848
:1001AC000348044B834202D0034B03B118477047FA
:1001BC00040000200400002000000000054806494F
:1001CC000B1AD90F01EBA301491002D0034B03B159
:1001DC0018477047040000200400002000000000B5
:1001EC0010B5064C237843B9FFF7DAFF044B13B173
:1001FC000448AFF300800123237010BD04000020DD
:10020C00000000005004000808B5044B1BB1044961
:10021C000448AFF30080BDE80840CFE700000000C1
:10022C00080000205004000870B50D4E0D4D761BD3
:10023C00B61006D00024013455F8043B9847A6426A
:10024C00F9D1094E094D761B00F0FCF8B61006D01A
:10025C000024013455F8043B9847A642F9D170BDEF
:10026C0078040008780400087C040008780400086E
:10027C0008B5114A136B43F002031363A2F55052F5
:10028C0011680E4B0B43136000F062F80C4B1B68AB
:10029C000C4AA2FB03235B09013BB3F1807F09D21B
:1002AC00094A5360094BF02183F823100023936013
:1002BC000723136062B608BD0038024001400010ED
:1002CC00000000201F85EB5110E000E000ED00E085
:1002DC00024A136801331360704700BF20000020EE
:1002EC0072B6034B1A68034B1A6062B618687047F3
:1002FC00200000202400002038B5642505FB00F503
:10030C00FFF7EEFF0446FFF7EBFF001BA842FAD302
:10031C0038BD000008B5FFF7ABFF054A536983F4FD
:10032C00814383F0010353610120FFF7E5FFF4E7FC
:10033C0000040240054BD3F8882042F47002C3F845
:10034C0088204FF000629A60704700BF00ED00E01B
:10035C00224B9B6803F00C03042B14D0082B16D0F3
:10036C001BB11F4B1F4A1A6002E01D4B1D4A1A603D
:10037C001A4B9B68C3F303131B4AD15C184A1368CE
:10038C00CB4013607047164B184A1A60F0E7134BBA
:10039C005A685B6803F03F0312F4800F13D0134AC2
:1003AC00B2FBF3F20D4B5B68C3F3881303FB02F350
:1003BC000A4A5268C2F3014201325200B3FBF2F313
:1003CC00074A1360D4E7074AB2FBF3F2034B5B68AE
:1003DC00C3F3881303FB02F3EAE700BF00380240C3
:1003EC00000000200024F4006804000840787D011F
:1003FC00DFF834D0002103E00C4B5B584350043140
:10040C000B480C4B42189A42F6D30B4A02E00023DD
:10041C0042F8043B094B9A42F9D3FFF78BFFFFF7E5
:10042C0003FFFFF777FF70470000032080040008EC
:10043C000000002004000020040000202800002000
:10044C00FEE70000F8B500BFF8BC08BC9E4670473C
:0C045C00F8B500BFF8BC08BC9E46704715
:10046800000000000000000001020304060708095C
:040478001502000861
:04047C00ED01000886
:040480000024F40060
:04000005080003FDEF
:00000001FF
